:100000000C9431000C94A5000C94A5000C94A50050
:100010000C94A5000C94A5000C94A5000C94A500CC
:100020000C94A5000C94A5000C94A5000C94A500BC
:100030000C94A5000C94A5000C94A5000C94A500AC
:100040000C94A5000C94A5000C94A5000C94A5009C
:100050000C94A5000060006D00014E006D00790059
:10006000015B11241FBECFE5D8E0DEBFCDBFE4E5C4
:10007000F0E040E017C0B591A5913591259105912B
:1000800007FD0CC095918591EF01F92FE82F0590A0
:100090000D92A217B307D9F7FE0104C01D92A21753
:1000A000B307E1F7E236F40731F70E945B000C94E6
:0600B0005900F894FFCF97
:1000B600A098A19A0E949D00C2E080E090E00E9474
:1000C6009100892BD1F385B38C2785BB81E090E025
:1000D6000E949100892B29F08DE690E00E94820013
:1000E60004C080E690E00E9482002FEF84E39CE04B
:0E00F600215080409040E1F700C00000DECFB6
:10010400CF93DF93EC018881882331F021960E94FC
:0E011400A10089918111FBCFDF91CF91089559
:1001220023B330E0A90102C0559547958A95E2F7BD
:08013200CA01817099270895AC
:08013A00539A83E389B908958B
:080142005D9BFECF8CB908950E
:04014A000C94000011
:0D014E004C4544206973204F4646090D00C2
:0C015B004C4544206973204F4E090D00F4
:00000001FF
